{
  "contractName": "Bookie",
  "abi": [
    {
      "inputs": [
        {
          "internalType": "address",
          "name": "c",
          "type": "address"
        },
        {
          "internalType": "address",
          "name": "gameId",
          "type": "address"
        },
        {
          "internalType": "address",
          "name": "winner",
          "type": "address"
        },
        {
          "internalType": "uint256",
          "name": "amount",
          "type": "uint256"
        }
      ],
      "name": "placeBet",
      "outputs": [
        {
          "internalType": "address",
          "name": "",
          "type": "address"
        }
      ],
      "stateMutability": "nonpayable",
      "type": "function"
    },
    {
      "inputs": [
        {
          "internalType": "address",
          "name": "c",
          "type": "address"
        },
        {
          "internalType": "address",
          "name": "gameId",
          "type": "address"
        }
      ],
      "name": "cashBet",
      "outputs": [
        {
          "internalType": "uint256",
          "name": "newBalance",
          "type": "uint256"
        }
      ],
      "stateMutability": "nonpayable",
      "type": "function"
    }
  ],
  "bytecode": "0x608060405234801561001057600080fd5b50611200806100206000396000f3fe608060405234801561001057600080fd5b50600436106100365760003560e01c80634de7d2ea1461003b578063e298c4c61461006b575b600080fd5b61005560048036038101906100509190610a87565b61009b565b6040516100629190610afd565b60405180910390f35b61008560048036038101906100809190610b18565b610376565b6040516100929190610b67565b60405180910390f35b600080859050600086905060008273ffffffffffffffffffffffffffffffffffffffff16638d1a4b28886040518263ffffffff1660e01b81526004016100e19190610afd565b60e060405180830381865afa1580156100fe573d6000803e3d6000fd5b505050506040513d601f19601f820116820180604052508101906101229190610d2a565b90508573ffffffffffffffffffffffffffffffffffffffff16816020015173ffffffffffffffffffffffffffffffffffffffff16148061019157508573ffffffffffffffffffffffffffffffffffffffff16816040015173ffffffffffffffffffffffffffffffffffffffff16145b6101d0576040517f08c379a00000000000000000000000000000000000000000000000000000000081526004016101c790610dda565b60405180910390fd5b6000816060015160ff16141561021b576040517f08c379a000000000000000000000000000000000000000000000000000000000815260040161021290610e6c565b60405180910390fd5b60008273ffffffffffffffffffffffffffffffffffffffff166370a08231336040518263ffffffff1660e01b81526004016102569190610afd565b602060405180830381865afa158015610273573d6000803e3d6000fd5b505050506040513d601f19601f820116820180604052508101906102979190610e8c565b90508581116102db576040517f08c379a00000000000000000000000000000000000000000000000000000000081526004016102d290610f05565b60405180910390fd5b8273ffffffffffffffffffffffffffffffffffffffff1663a9059cbb30886040518363ffffffff1660e01b8152600401610316929190610f25565b6020604051808303816000875af1158015610335573d6000803e3d6000fd5b505050506040513d601f19601f820116820180604052508101906103599190610f86565b506103678289338a8a610696565b87945050505050949350505050565b6000806000808473ffffffffffffffffffffffffffffffffffffffff1673ffffffffffffffffffffffffffffffffffffffff16815260200190815260200160002060000160003373ffffffffffffffffffffffffffffffffffffffff1673ffffffffffffffffffffffffffffffffffffffff168152602001908152602001600020541180610482575060008060008473ffffffffffffffffffffffffffffffffffffffff1673ffffffffffffffffffffffffffffffffffffffff16815260200190815260200160002060010160003373ffffffffffffffffffffffffffffffffffffffff1673ffffffffffffffffffffffffffffffffffffffff16815260200190815260200160002054115b6104c1576040517f08c379a00000000000000000000000000000000000000000000000000000000081526004016104b890610fff565b60405180910390fd5b60008373ffffffffffffffffffffffffffffffffffffffff16638d1a4b28846040518263ffffffff1660e01b81526004016104fc9190610afd565b60e060405180830381865afa158015610519573d6000803e3d6000fd5b505050506040513d601f19601f8201168201806040525081019061053d9190610d2a565b90506002816060015160ff16141561058a576040517f08c379a00000000000000000000000000000000000000000000000000000000081526004016105819061106b565b60405180910390fd5b8373ffffffffffffffffffffffffffffffffffffffff1663a9059cbb306105b2848733610891565b6040518363ffffffff1660e01b81526004016105cf929190610f25565b6020604051808303816000875af11580156105ee573d6000803e3d6000fd5b505050506040513d601f19601f820116820180604052508101906106129190610f86565b508373ffffffffffffffffffffffffffffffffffffffff166370a08231336040518263ffffffff1660e01b815260040161064c9190610afd565b602060405180830381865afa158015610669573d6000803e3d6000fd5b505050506040513d601f19601f8201168201806040525081019061068d9190610e8c565b91505092915050565b8173ffffffffffffffffffffffffffffffffffffffff16856020015173ffffffffffffffffffffffffffffffffffffffff1614156107ae57806000808673ffffffffffffffffffffffffffffffffffffffff1673ffffffffffffffffffffffffffffffffffffffff16815260200190815260200160002060000160008573ffffffffffffffffffffffffffffffffffffffff1673ffffffffffffffffffffffffffffffffffffffff16815260200190815260200160002081905550806000808673ffffffffffffffffffffffffffffffffffffffff1673ffffffffffffffffffffffffffffffffffffffff16815260200190815260200160002060020160008282546107a291906110ba565b9250508190555061088a565b806000808673ffffffffffffffffffffffffffffffffffffffff1673ffffffffffffffffffffffffffffffffffffffff16815260200190815260200160002060010160008573ffffffffffffffffffffffffffffffffffffffff1673ffffffffffffffffffffffffffffffffffffffff16815260200190815260200160002081905550806000808673ffffffffffffffffffffffffffffffffffffffff1673ffffffffffffffffffffffffffffffffffffffff168152602001908152602001600020600301600082825461088291906110ba565b925050819055505b5050505050565b6000806000808573ffffffffffffffffffffffffffffffffffffffff1673ffffffffffffffffffffffffffffffffffffffff16815260200190815260200160002090506000816003015482600201546108ea91906110ba565b90506001866080015160ff1614156109655760008260000160008673ffffffffffffffffffffffffffffffffffffffff1673ffffffffffffffffffffffffffffffffffffffff168152602001908152602001600020549050826002015481610952919061113f565b8261095d9190611170565b9350506109db565b6002866080015160ff1614156109da5760008260010160008673ffffffffffffffffffffffffffffffffffffffff1673ffffffffffffffffffffffffffffffffffffffff1681526020019081526020016000205490508260030154816109cb919061113f565b826109d69190611170565b9350505b5b50509392505050565b6000604051905090565b600080fd5b600073ffffffffffffffffffffffffffffffffffffffff82169050919050565b6000610a1e826109f3565b9050919050565b610a2e81610a13565b8114610a3957600080fd5b50565b600081359050610a4b81610a25565b92915050565b6000819050919050565b610a6481610a51565b8114610a6f57600080fd5b50565b600081359050610a8181610a5b565b92915050565b60008060008060808587031215610aa157610aa06109ee565b5b6000610aaf87828801610a3c565b9450506020610ac087828801610a3c565b9350506040610ad187828801610a3c565b9250506060610ae287828801610a72565b91505092959194509250565b610af781610a13565b82525050565b6000602082019050610b126000830184610aee565b92915050565b60008060408385031215610b2f57610b2e6109ee565b5b6000610b3d85828601610a3c565b9250506020610b4e85828601610a3c565b9150509250929050565b610b6181610a51565b82525050565b6000602082019050610b7c6000830184610b58565b92915050565b600080fd5b6000601f19601f8301169050919050565b7f4e487b7100000000000000000000000000000000000000000000000000000000600052604160045260246000fd5b610bd082610b87565b810181811067ffffffffffffffff82111715610bef57610bee610b98565b5b80604052505050565b6000610c026109e4565b9050610c0e8282610bc7565b919050565b600081519050610c2281610a5b565b92915050565b600081519050610c3781610a25565b92915050565b600060ff82169050919050565b610c5381610c3d565b8114610c5e57600080fd5b50565b600081519050610c7081610c4a565b92915050565b600060e08284031215610c8c57610c8b610b82565b5b610c9660e0610bf8565b90506000610ca684828501610c13565b6000830152506020610cba84828501610c28565b6020830152506040610cce84828501610c28565b6040830152506060610ce284828501610c61565b6060830152506080610cf684828501610c61565b60808301525060a0610d0a84828501610c61565b60a08301525060c0610d1e84828501610c61565b60c08301525092915050565b600060e08284031215610d4057610d3f6109ee565b5b6000610d4e84828501610c76565b91505092915050565b600082825260208201905092915050565b7f596f75206172652062657474696e67206f6e2061207465616d2074686174732060008201527f6e6f7420696e20746869732067616d6500000000000000000000000000000000602082015250565b6000610dc4603083610d57565b9150610dcf82610d68565b604082019050919050565b60006020820190508181036000830152610df381610db7565b9050919050565b7f546869732067616d65206973206e6f206c6f6e6765722074616b696e6720626560008201527f7473000000000000000000000000000000000000000000000000000000000000602082015250565b6000610e56602283610d57565b9150610e6182610dfa565b604082019050919050565b60006020820190508181036000830152610e8581610e49565b9050919050565b600060208284031215610ea257610ea16109ee565b5b6000610eb084828501610c13565b91505092915050565b7f496e737566696369656e742066756e6473000000000000000000000000000000600082015250565b6000610eef601183610d57565b9150610efa82610eb9565b602082019050919050565b60006020820190508181036000830152610f1e81610ee2565b9050919050565b6000604082019050610f3a6000830185610aee565b610f476020830184610b58565b9392505050565b60008115159050919050565b610f6381610f4e565b8114610f6e57600080fd5b50565b600081519050610f8081610f5a565b92915050565b600060208284031215610f9c57610f9b6109ee565b5b6000610faa84828501610f71565b91505092915050565b7f596f752068617665206e6f206265747320696e207468697320706f7400000000600082015250565b6000610fe9601c83610d57565b9150610ff482610fb3565b602082019050919050565b6000602082019050818103600083015261101881610fdc565b9050919050565b7f5468652067616d65206861736e27742066696e69736865642079657400000000600082015250565b6000611055601c83610d57565b91506110608261101f565b602082019050919050565b6000602082019050818103600083015261108481611048565b9050919050565b7f4e487b7100000000000000000000000000000000000000000000000000000000600052601160045260246000fd5b60006110c582610a51565b91506110d083610a51565b9250827fffffffffffffffffffffffffffffffffffffffffffffffffffffffffffffffff038211156111055761110461108b565b5b828201905092915050565b7f4e487b7100000000000000000000000000000000000000000000000000000000600052601260045260246000fd5b600061114a82610a51565b915061115583610a51565b92508261116557611164611110565b5b828204905092915050565b600061117b82610a51565b915061118683610a51565b9250817fffffffffffffffffffffffffffffffffffffffffffffffffffffffffffffffff04831182151516156111bf576111be61108b565b5b82820290509291505056fea26469706673582212208a77a3179d6b1780dec51998b66f2fd2aa20a5b8f7ed4584bdb9cbfcb1ee9c0064736f6c634300080a0033",
  "immutableReferences": {},
  "source": "// SPDX-License-Identifier: MIT\npragma solidity ^0.8.10;\n\nimport './Oracle.sol';\nimport './Token.sol';\n\ncontract Bookie {\n\n  struct Pot {\n    mapping(address => uint256) betsForA; // a bet is a relation from address to amount\n    mapping(address => uint256) betsForB;\n    uint256 sumForA;\n    uint256 sumForB;\n  }\n\n  mapping(address => Pot) _pots; // game -> bet relation\n\n\n  function bookkeep(Oracle.Game memory game, address gameId, address player, address winner, uint256 amount) internal {\n    if(game.a == winner) {\n      _pots[gameId].betsForA[player] = amount;\n      _pots[gameId].sumForA += amount;\n    }\n    else {\n      _pots[gameId].betsForB[player] = amount;\n      _pots[gameId].sumForB += amount;\n    }\n  }\n\n  function calculateReturn(Oracle.Game memory game, address gameId, address player) internal view returns (uint256 earned) {\n    Pot storage pot = _pots[gameId];\n    uint256 totalFunds = pot.sumForA + pot.sumForB;\n\n    if (game.result == AWON) {\n      uint256 betted = pot.betsForA[player];\n      earned = totalFunds * (betted / pot.sumForA);\n    }\n    else if (game.result == BWON) {\n      uint256 betted = pot.betsForB[player];\n      earned = totalFunds * (betted / pot.sumForB);\n    }\n  }\n  /**\n    @param c: the address for the contract you are betting on\n  */\n  function placeBet(address c, address gameId, address winner, uint256 amount) external returns (address) {\n    // check for game existence and non-started status\n    Oracle oracle = Oracle(c);\n    Token token = Token(c);\n    Oracle.Game memory game = oracle.getGame(gameId);\n    require(game.a == winner || game.b == winner, \"You are betting on a team thats not in this game\");\n    require(game.status != UNSTARTED, \"This game is no longer taking bets\");\n    uint256 balance = token.balanceOf(msg.sender); \n    require (balance > amount, \"Insuficient funds\");\n    \n    token.transfer(address(this), amount); // the contract will hold those tokens\n\n    bookkeep(game, gameId, msg.sender, winner, amount); // you're in\n\n    return gameId;\n  }\n\n  /**\n    @param c: the address for the contract you are betting on\n  */\n  function cashBet(address c, address gameId) external returns (uint256 newBalance) {\n    require(_pots[gameId].betsForA[msg.sender] > 0 || _pots[gameId].betsForB[msg.sender] > 0, \"You have no bets in this pot\");\n    Oracle.Game memory game = Oracle(c).getGame(gameId);\n    require(game.status != FINISHED, \"The game hasn't finished yet\");\n\n    Token(c).transfer(address(this), calculateReturn(game, gameId, msg.sender));\n\n    return Token(c).balanceOf(msg.sender);\n  }\n\n}",
  "sourcePath": "/home/ulince/Data/Test/Truffle/contracts/Bookie.sol",
  "compiler": {
    "name": "solc",
    "version": "0.8.10+commit.fc410830.Emscripten.clang"
  },
  "schemaVersion": "3.4.4",
  "updatedAt": "2022-01-05T19:07:04.047Z",
  "devdoc": {
    "kind": "dev",
    "methods": {
      "cashBet(address,address)": {
        "params": {
          "c": ": the address for the contract you are betting on"
        }
      },
      "placeBet(address,address,address,uint256)": {
        "params": {
          "c": ": the address for the contract you are betting on"
        }
      }
    },
    "version": 1
  },
  "userdoc": {
    "kind": "user",
    "methods": {},
    "version": 1
  }
}