{
  "contractName": "Bookie",
  "abi": [
    {
      "inputs": [
        {
          "internalType": "address",
          "name": "c",
          "type": "address"
        },
        {
          "internalType": "address",
          "name": "gameId",
          "type": "address"
        },
        {
          "internalType": "address",
          "name": "winner",
          "type": "address"
        },
        {
          "internalType": "uint256",
          "name": "amount",
          "type": "uint256"
        }
      ],
      "name": "placeBet",
      "outputs": [
        {
          "internalType": "address",
          "name": "",
          "type": "address"
        }
      ],
      "stateMutability": "nonpayable",
      "type": "function"
    },
    {
      "inputs": [
        {
          "internalType": "address",
          "name": "c",
          "type": "address"
        },
        {
          "internalType": "address",
          "name": "gameId",
          "type": "address"
        }
      ],
      "name": "cashBet",
      "outputs": [
        {
          "internalType": "uint256",
          "name": "newBalance",
          "type": "uint256"
        }
      ],
      "stateMutability": "nonpayable",
      "type": "function"
    }
  ],
  "bytecode": "0x608060405234801561001057600080fd5b5061120c806100206000396000f3fe608060405234801561001057600080fd5b50600436106100365760003560e01c80634de7d2ea1461003b578063e298c4c61461006b575b600080fd5b61005560048036038101906100509190610a93565b61009b565b6040516100629190610b09565b60405180910390f35b61008560048036038101906100809190610b24565b610379565b6040516100929190610b73565b60405180910390f35b600080859050600086905060008273ffffffffffffffffffffffffffffffffffffffff16638d1a4b28886040518263ffffffff1660e01b81526004016100e19190610b09565b60e060405180830381865afa1580156100fe573d6000803e3d6000fd5b505050506040513d601f19601f820116820180604052508101906101229190610d36565b90508573ffffffffffffffffffffffffffffffffffffffff16816020015173ffffffffffffffffffffffffffffffffffffffff16148061019157508573ffffffffffffffffffffffffffffffffffffffff16816040015173ffffffffffffffffffffffffffffffffffffffff16145b6101d0576040517f08c379a00000000000000000000000000000000000000000000000000000000081526004016101c790610de6565b60405180910390fd5b600060ff16816060015160ff16141561021e576040517f08c379a000000000000000000000000000000000000000000000000000000000815260040161021590610e78565b60405180910390fd5b60008273ffffffffffffffffffffffffffffffffffffffff166370a08231336040518263ffffffff1660e01b81526004016102599190610b09565b602060405180830381865afa158015610276573d6000803e3d6000fd5b505050506040513d601f19601f8201168201806040525081019061029a9190610e98565b90508581116102de576040517f08c379a00000000000000000000000000000000000000000000000000000000081526004016102d590610f11565b60405180910390fd5b8273ffffffffffffffffffffffffffffffffffffffff1663a9059cbb30886040518363ffffffff1660e01b8152600401610319929190610f31565b6020604051808303816000875af1158015610338573d6000803e3d6000fd5b505050506040513d601f19601f8201168201806040525081019061035c9190610f92565b5061036a8289338a8a61069c565b87945050505050949350505050565b6000806000808473ffffffffffffffffffffffffffffffffffffffff1673ffffffffffffffffffffffffffffffffffffffff16815260200190815260200160002060000160003373ffffffffffffffffffffffffffffffffffffffff1673ffffffffffffffffffffffffffffffffffffffff168152602001908152602001600020541180610485575060008060008473ffffffffffffffffffffffffffffffffffffffff1673ffffffffffffffffffffffffffffffffffffffff16815260200190815260200160002060010160003373ffffffffffffffffffffffffffffffffffffffff1673ffffffffffffffffffffffffffffffffffffffff16815260200190815260200160002054115b6104c4576040517f08c379a00000000000000000000000000000000000000000000000000000000081526004016104bb9061100b565b60405180910390fd5b60008373ffffffffffffffffffffffffffffffffffffffff16638d1a4b28846040518263ffffffff1660e01b81526004016104ff9190610b09565b60e060405180830381865afa15801561051c573d6000803e3d6000fd5b505050506040513d601f19601f820116820180604052508101906105409190610d36565b9050600260ff16816060015160ff161415610590576040517f08c379a000000000000000000000000000000000000000000000000000000000815260040161058790611077565b60405180910390fd5b8373ffffffffffffffffffffffffffffffffffffffff1663a9059cbb306105b8848733610897565b6040518363ffffffff1660e01b81526004016105d5929190610f31565b6020604051808303816000875af11580156105f4573d6000803e3d6000fd5b505050506040513d601f19601f820116820180604052508101906106189190610f92565b508373ffffffffffffffffffffffffffffffffffffffff166370a08231336040518263ffffffff1660e01b81526004016106529190610b09565b602060405180830381865afa15801561066f573d6000803e3d6000fd5b505050506040513d601f19601f820116820180604052508101906106939190610e98565b91505092915050565b8173ffffffffffffffffffffffffffffffffffffffff16856020015173ffffffffffffffffffffffffffffffffffffffff1614156107b457806000808673ffffffffffffffffffffffffffffffffffffffff1673ffffffffffffffffffffffffffffffffffffffff16815260200190815260200160002060000160008573ffffffffffffffffffffffffffffffffffffffff1673ffffffffffffffffffffffffffffffffffffffff16815260200190815260200160002081905550806000808673ffffffffffffffffffffffffffffffffffffffff1673ffffffffffffffffffffffffffffffffffffffff16815260200190815260200160002060020160008282546107a891906110c6565b92505081905550610890565b806000808673ffffffffffffffffffffffffffffffffffffffff1673ffffffffffffffffffffffffffffffffffffffff16815260200190815260200160002060010160008573ffffffffffffffffffffffffffffffffffffffff1673ffffffffffffffffffffffffffffffffffffffff16815260200190815260200160002081905550806000808673ffffffffffffffffffffffffffffffffffffffff1673ffffffffffffffffffffffffffffffffffffffff168152602001908152602001600020600301600082825461088891906110c6565b925050819055505b5050505050565b6000806000808573ffffffffffffffffffffffffffffffffffffffff1673ffffffffffffffffffffffffffffffffffffffff16815260200190815260200160002090506000816003015482600201546108f091906110c6565b9050600160ff16866080015160ff16141561096e5760008260000160008673ffffffffffffffffffffffffffffffffffffffff1673ffffffffffffffffffffffffffffffffffffffff16815260200190815260200160002054905082600201548161095b919061114b565b82610966919061117c565b9350506109e7565b600260ff16866080015160ff1614156109e65760008260010160008673ffffffffffffffffffffffffffffffffffffffff1673ffffffffffffffffffffffffffffffffffffffff1681526020019081526020016000205490508260030154816109d7919061114b565b826109e2919061117c565b9350505b5b50509392505050565b6000604051905090565b600080fd5b600073ffffffffffffffffffffffffffffffffffffffff82169050919050565b6000610a2a826109ff565b9050919050565b610a3a81610a1f565b8114610a4557600080fd5b50565b600081359050610a5781610a31565b92915050565b6000819050919050565b610a7081610a5d565b8114610a7b57600080fd5b50565b600081359050610a8d81610a67565b92915050565b60008060008060808587031215610aad57610aac6109fa565b5b6000610abb87828801610a48565b9450506020610acc87828801610a48565b9350506040610add87828801610a48565b9250506060610aee87828801610a7e565b91505092959194509250565b610b0381610a1f565b82525050565b6000602082019050610b1e6000830184610afa565b92915050565b60008060408385031215610b3b57610b3a6109fa565b5b6000610b4985828601610a48565b9250506020610b5a85828601610a48565b9150509250929050565b610b6d81610a5d565b82525050565b6000602082019050610b886000830184610b64565b92915050565b600080fd5b6000601f19601f8301169050919050565b7f4e487b7100000000000000000000000000000000000000000000000000000000600052604160045260246000fd5b610bdc82610b93565b810181811067ffffffffffffffff82111715610bfb57610bfa610ba4565b5b80604052505050565b6000610c0e6109f0565b9050610c1a8282610bd3565b919050565b600081519050610c2e81610a67565b92915050565b600081519050610c4381610a31565b92915050565b600060ff82169050919050565b610c5f81610c49565b8114610c6a57600080fd5b50565b600081519050610c7c81610c56565b92915050565b600060e08284031215610c9857610c97610b8e565b5b610ca260e0610c04565b90506000610cb284828501610c1f565b6000830152506020610cc684828501610c34565b6020830152506040610cda84828501610c34565b6040830152506060610cee84828501610c6d565b6060830152506080610d0284828501610c6d565b60808301525060a0610d1684828501610c6d565b60a08301525060c0610d2a84828501610c6d565b60c08301525092915050565b600060e08284031215610d4c57610d4b6109fa565b5b6000610d5a84828501610c82565b91505092915050565b600082825260208201905092915050565b7f596f75206172652062657474696e67206f6e2061207465616d2074686174732060008201527f6e6f7420696e20746869732067616d6500000000000000000000000000000000602082015250565b6000610dd0603083610d63565b9150610ddb82610d74565b604082019050919050565b60006020820190508181036000830152610dff81610dc3565b9050919050565b7f546869732067616d65206973206e6f206c6f6e6765722074616b696e6720626560008201527f7473000000000000000000000000000000000000000000000000000000000000602082015250565b6000610e62602283610d63565b9150610e6d82610e06565b604082019050919050565b60006020820190508181036000830152610e9181610e55565b9050919050565b600060208284031215610eae57610ead6109fa565b5b6000610ebc84828501610c1f565b91505092915050565b7f496e737566696369656e742066756e6473000000000000000000000000000000600082015250565b6000610efb601183610d63565b9150610f0682610ec5565b602082019050919050565b60006020820190508181036000830152610f2a81610eee565b9050919050565b6000604082019050610f466000830185610afa565b610f536020830184610b64565b9392505050565b60008115159050919050565b610f6f81610f5a565b8114610f7a57600080fd5b50565b600081519050610f8c81610f66565b92915050565b600060208284031215610fa857610fa76109fa565b5b6000610fb684828501610f7d565b91505092915050565b7f596f752068617665206e6f206265747320696e207468697320706f7400000000600082015250565b6000610ff5601c83610d63565b915061100082610fbf565b602082019050919050565b6000602082019050818103600083015261102481610fe8565b9050919050565b7f5468652067616d65206861736e27742066696e69736865642079657400000000600082015250565b6000611061601c83610d63565b915061106c8261102b565b602082019050919050565b6000602082019050818103600083015261109081611054565b9050919050565b7f4e487b7100000000000000000000000000000000000000000000000000000000600052601160045260246000fd5b60006110d182610a5d565b91506110dc83610a5d565b9250827fffffffffffffffffffffffffffffffffffffffffffffffffffffffffffffffff0382111561111157611110611097565b5b828201905092915050565b7f4e487b7100000000000000000000000000000000000000000000000000000000600052601260045260246000fd5b600061115682610a5d565b915061116183610a5d565b9250826111715761117061111c565b5b828204905092915050565b600061118782610a5d565b915061119283610a5d565b9250817fffffffffffffffffffffffffffffffffffffffffffffffffffffffffffffffff04831182151516156111cb576111ca611097565b5b82820290509291505056fea2646970667358221220da60ec41d8c4c1d28a77e97b128d65af49565cef45b48399112a30efc273650a64736f6c634300080a0033",
  "immutableReferences": {},
  "source": "// SPDX-License-Identifier: MIT\npragma solidity ^0.8.10;\n\nimport './Oracle.sol';\nimport \"@openzeppelin/contracts/token/ERC20/IERC20.sol\";\nimport './Constants.sol';\n\ncontract Bookie {\n\n  struct Pot {\n    mapping(address => uint256) betsForA; // a bet is a relation from address to amount\n    mapping(address => uint256) betsForB;\n    uint256 sumForA;\n    uint256 sumForB;\n  }\n\n  mapping(address => Pot) _pots; // game -> bet relation\n\n\n  function bookkeep(Oracle.Game memory game, address gameId, address player, address winner, uint256 amount) internal {\n    if(game.a == winner) {\n      _pots[gameId].betsForA[player] = amount;\n      _pots[gameId].sumForA += amount;\n    }\n    else {\n      _pots[gameId].betsForB[player] = amount;\n      _pots[gameId].sumForB += amount;\n    }\n  }\n\n  function calculateReturn(Oracle.Game memory game, address gameId, address player) internal view returns (uint256 earned) {\n    Pot storage pot = _pots[gameId];\n    uint256 totalFunds = pot.sumForA + pot.sumForB;\n\n    if (game.result == Constants.AWON) {\n      uint256 betted = pot.betsForA[player];\n      earned = totalFunds * (betted / pot.sumForA);\n    }\n    else if (game.result == Constants.BWON) {\n      uint256 betted = pot.betsForB[player];\n      earned = totalFunds * (betted / pot.sumForB);\n    }\n  }\n  /**\n    @param c: the address for the contract you are betting on\n  */\n  function placeBet(address c, address gameId, address winner, uint256 amount) external returns (address) {\n    // check for game existence and non-started status\n    Oracle oracle = Oracle(c);\n    IERC20 token = IERC20(c);\n    Oracle.Game memory game = oracle.getGame(gameId);\n    require(game.a == winner || game.b == winner, \"You are betting on a team thats not in this game\");\n    require(game.status != Constants.UNSTARTED, \"This game is no longer taking bets\");\n    uint256 balance = token.balanceOf(msg.sender); \n    require (balance > amount, \"Insuficient funds\");\n    \n    token.transfer(address(this), amount); // the contract will hold those tokens\n\n    bookkeep(game, gameId, msg.sender, winner, amount); // you're in\n\n    return gameId;\n  }\n\n  /**\n    @param c: the address for the contract you are betting on\n  */\n  function cashBet(address c, address gameId) external returns (uint256 newBalance) {\n    require(_pots[gameId].betsForA[msg.sender] > 0 || _pots[gameId].betsForB[msg.sender] > 0, \"You have no bets in this pot\");\n    Oracle.Game memory game = Oracle(c).getGame(gameId);\n    require(game.status != Constants.FINISHED, \"The game hasn't finished yet\");\n\n    IERC20(c).transfer(address(this), calculateReturn(game, gameId, msg.sender));\n\n    return IERC20(c).balanceOf(msg.sender);\n  }\n\n}",
  "sourcePath": "/home/ulince/Data/Test/Truffle/contracts/Bookie.sol",
  "compiler": {
    "name": "solc",
    "version": "0.8.10+commit.fc410830.Emscripten.clang"
  },
  "schemaVersion": "3.4.4",
  "updatedAt": "2022-01-06T03:04:54.810Z",
  "networkType": "ethereum",
  "devdoc": {
    "kind": "dev",
    "methods": {
      "cashBet(address,address)": {
        "params": {
          "c": ": the address for the contract you are betting on"
        }
      },
      "placeBet(address,address,address,uint256)": {
        "params": {
          "c": ": the address for the contract you are betting on"
        }
      }
    },
    "version": 1
  },
  "userdoc": {
    "kind": "user",
    "methods": {},
    "version": 1
  }
}