{
  "contractName": "Constants",
  "abi": [
    {
      "inputs": [],
      "name": "AWON",
      "outputs": [
        {
          "internalType": "uint8",
          "name": "",
          "type": "uint8"
        }
      ],
      "stateMutability": "view",
      "type": "function"
    },
    {
      "inputs": [],
      "name": "BWON",
      "outputs": [
        {
          "internalType": "uint8",
          "name": "",
          "type": "uint8"
        }
      ],
      "stateMutability": "view",
      "type": "function"
    },
    {
      "inputs": [],
      "name": "FINISHED",
      "outputs": [
        {
          "internalType": "uint8",
          "name": "",
          "type": "uint8"
        }
      ],
      "stateMutability": "view",
      "type": "function"
    },
    {
      "inputs": [],
      "name": "STARTED",
      "outputs": [
        {
          "internalType": "uint8",
          "name": "",
          "type": "uint8"
        }
      ],
      "stateMutability": "view",
      "type": "function"
    },
    {
      "inputs": [],
      "name": "TIE",
      "outputs": [
        {
          "internalType": "uint8",
          "name": "",
          "type": "uint8"
        }
      ],
      "stateMutability": "view",
      "type": "function"
    },
    {
      "inputs": [],
      "name": "UNSTARTED",
      "outputs": [
        {
          "internalType": "uint8",
          "name": "",
          "type": "uint8"
        }
      ],
      "stateMutability": "view",
      "type": "function"
    }
  ],
  "bytecode": "0x6101b0610053600b82828239805160001a607314610046577f4e487b7100000000000000000000000000000000000000000000000000000000600052600060045260246000fd5b30600052607381538281f3fe730000000000000000000000000000000000000000301460806040526004361061006c5760003560e01c806305051ee91461007157806309df06b71461008f5780631be35a59146100ad5780633b70d5ef146100cb578063a75356b7146100e9578063b54e5e8f14610107575b600080fd5b610079610125565b604051610086919061015f565b60405180910390f35b61009761012a565b6040516100a4919061015f565b60405180910390f35b6100b561012f565b6040516100c2919061015f565b60405180910390f35b6100d3610134565b6040516100e0919061015f565b60405180910390f35b6100f1610139565b6040516100fe919061015f565b60405180910390f35b61010f61013e565b60405161011c919061015f565b60405180910390f35b600281565b600381565b600181565b600181565b600081565b600281565b600060ff82169050919050565b61015981610143565b82525050565b60006020820190506101746000830184610150565b9291505056fea26469706673582212208a305d6c094b4aec298dc00663784bd51a5da9b6da649a5311323b80dcea725664736f6c634300080a0033",
  "immutableReferences": {},
  "source": "pragma solidity ^0.8.10;\n\nlibrary Constants {\n\n    uint8 public constant UNSTARTED = 0;\n    uint8 public constant STARTED = 1;\n    uint8 public constant FINISHED = 2;\n    uint8 public constant AWON = 1;\n    uint8 public constant BWON = 2;\n    uint8 public constant TIE = 3;\n}",
  "sourcePath": "/home/ulince/Data/Test/Truffle/contracts/Constants.sol",
  "compiler": {
    "name": "solc",
    "version": "0.8.10+commit.fc410830.Emscripten.clang"
  },
  "schemaVersion": "3.4.4",
  "updatedAt": "2022-01-06T03:04:44.828Z",
  "devdoc": {
    "kind": "dev",
    "methods": {},
    "version": 1
  },
  "userdoc": {
    "kind": "user",
    "methods": {},
    "version": 1
  }
}