{
  "contractName": "FIFA",
  "abi": [
    {
      "inputs": [
        {
          "internalType": "string",
          "name": "name_",
          "type": "string"
        },
        {
          "internalType": "string",
          "name": "symbol_",
          "type": "string"
        }
      ],
      "stateMutability": "nonpayable",
      "type": "constructor"
    },
    {
      "anonymous": false,
      "inputs": [
        {
          "indexed": false,
          "internalType": "address",
          "name": "txhash",
          "type": "address"
        }
      ],
      "name": "AnnouncementDisproved",
      "type": "event"
    },
    {
      "anonymous": false,
      "inputs": [
        {
          "indexed": false,
          "internalType": "address",
          "name": "txhash",
          "type": "address"
        }
      ],
      "name": "AnnouncementSolidified",
      "type": "event"
    },
    {
      "anonymous": false,
      "inputs": [
        {
          "indexed": true,
          "internalType": "address",
          "name": "owner",
          "type": "address"
        },
        {
          "indexed": true,
          "internalType": "address",
          "name": "spender",
          "type": "address"
        },
        {
          "indexed": false,
          "internalType": "uint256",
          "name": "value",
          "type": "uint256"
        }
      ],
      "name": "Approval",
      "type": "event"
    },
    {
      "anonymous": false,
      "inputs": [
        {
          "indexed": false,
          "internalType": "address",
          "name": "announcer",
          "type": "address"
        },
        {
          "indexed": false,
          "internalType": "uint256",
          "name": "date",
          "type": "uint256"
        },
        {
          "indexed": false,
          "internalType": "address",
          "name": "teamA",
          "type": "address"
        },
        {
          "indexed": false,
          "internalType": "address",
          "name": "teamB",
          "type": "address"
        }
      ],
      "name": "GameAnnouncement",
      "type": "event"
    },
    {
      "anonymous": false,
      "inputs": [
        {
          "indexed": false,
          "internalType": "address",
          "name": "announcer",
          "type": "address"
        },
        {
          "indexed": false,
          "internalType": "string",
          "name": "announcement",
          "type": "string"
        }
      ],
      "name": "GeneralAnnouncement",
      "type": "event"
    },
    {
      "anonymous": false,
      "inputs": [
        {
          "indexed": false,
          "internalType": "address",
          "name": "announcer",
          "type": "address"
        },
        {
          "indexed": false,
          "internalType": "address",
          "name": "gameId",
          "type": "address"
        },
        {
          "indexed": false,
          "internalType": "uint256",
          "name": "minute",
          "type": "uint256"
        },
        {
          "indexed": false,
          "internalType": "address",
          "name": "awarder",
          "type": "address"
        },
        {
          "indexed": false,
          "internalType": "uint8",
          "name": "jersey",
          "type": "uint8"
        }
      ],
      "name": "GoalAnnouncement",
      "type": "event"
    },
    {
      "anonymous": false,
      "inputs": [
        {
          "indexed": false,
          "internalType": "address",
          "name": "announcer",
          "type": "address"
        },
        {
          "indexed": false,
          "internalType": "address",
          "name": "gameId",
          "type": "address"
        },
        {
          "indexed": false,
          "internalType": "uint8",
          "name": "status",
          "type": "uint8"
        }
      ],
      "name": "StatusAnnouncement",
      "type": "event"
    },
    {
      "anonymous": false,
      "inputs": [
        {
          "indexed": false,
          "internalType": "address",
          "name": "announcer",
          "type": "address"
        },
        {
          "indexed": false,
          "internalType": "address",
          "name": "teamId",
          "type": "address"
        },
        {
          "indexed": false,
          "internalType": "string",
          "name": "name",
          "type": "string"
        }
      ],
      "name": "TeamAnnouncement",
      "type": "event"
    },
    {
      "anonymous": false,
      "inputs": [
        {
          "indexed": true,
          "internalType": "address",
          "name": "from",
          "type": "address"
        },
        {
          "indexed": true,
          "internalType": "address",
          "name": "to",
          "type": "address"
        },
        {
          "indexed": false,
          "internalType": "uint256",
          "name": "value",
          "type": "uint256"
        }
      ],
      "name": "Transfer",
      "type": "event"
    },
    {
      "inputs": [
        {
          "internalType": "string",
          "name": "",
          "type": "string"
        }
      ],
      "name": "announce",
      "outputs": [],
      "stateMutability": "nonpayable",
      "type": "function"
    },
    {
      "inputs": [
        {
          "internalType": "address",
          "name": "gameId",
          "type": "address"
        },
        {
          "internalType": "uint256",
          "name": "date",
          "type": "uint256"
        },
        {
          "internalType": "address",
          "name": "teamA",
          "type": "address"
        },
        {
          "internalType": "address",
          "name": "teamB",
          "type": "address"
        }
      ],
      "name": "announceGame",
      "outputs": [],
      "stateMutability": "nonpayable",
      "type": "function"
    },
    {
      "inputs": [
        {
          "internalType": "address",
          "name": "gameId",
          "type": "address"
        },
        {
          "internalType": "uint8",
          "name": "status",
          "type": "uint8"
        }
      ],
      "name": "announceGameStatus",
      "outputs": [],
      "stateMutability": "nonpayable",
      "type": "function"
    },
    {
      "inputs": [
        {
          "internalType": "address",
          "name": "gameId",
          "type": "address"
        },
        {
          "internalType": "uint256",
          "name": "minute",
          "type": "uint256"
        },
        {
          "internalType": "address",
          "name": "awarder",
          "type": "address"
        },
        {
          "internalType": "uint8",
          "name": "jersey",
          "type": "uint8"
        }
      ],
      "name": "announceGoal",
      "outputs": [],
      "stateMutability": "nonpayable",
      "type": "function"
    },
    {
      "inputs": [
        {
          "internalType": "address",
          "name": "teamId",
          "type": "address"
        },
        {
          "internalType": "string",
          "name": "name",
          "type": "string"
        }
      ],
      "name": "announceTeam",
      "outputs": [],
      "stateMutability": "nonpayable",
      "type": "function"
    },
    {
      "inputs": [],
      "name": "approveAnnouncement",
      "outputs": [],
      "stateMutability": "nonpayable",
      "type": "function"
    },
    {
      "inputs": [],
      "name": "disproveAnnouncement",
      "outputs": [],
      "stateMutability": "nonpayable",
      "type": "function"
    },
    {
      "inputs": [
        {
          "internalType": "address",
          "name": "id",
          "type": "address"
        }
      ],
      "name": "getGame",
      "outputs": [
        {
          "components": [
            {
              "internalType": "uint256",
              "name": "date",
              "type": "uint256"
            },
            {
              "internalType": "address",
              "name": "a",
              "type": "address"
            },
            {
              "internalType": "address",
              "name": "b",
              "type": "address"
            },
            {
              "internalType": "uint8",
              "name": "status",
              "type": "uint8"
            },
            {
              "internalType": "uint8",
              "name": "result",
              "type": "uint8"
            },
            {
              "internalType": "uint8",
              "name": "scoreA",
              "type": "uint8"
            },
            {
              "internalType": "uint8",
              "name": "scoreB",
              "type": "uint8"
            }
          ],
          "internalType": "struct Oracle.Game",
          "name": "",
          "type": "tuple"
        }
      ],
      "stateMutability": "view",
      "type": "function",
      "constant": true
    },
    {
      "inputs": [],
      "name": "doNothing",
      "outputs": [
        {
          "internalType": "bool",
          "name": "",
          "type": "bool"
        }
      ],
      "stateMutability": "pure",
      "type": "function",
      "constant": true
    },
    {
      "inputs": [],
      "name": "name",
      "outputs": [
        {
          "internalType": "string",
          "name": "",
          "type": "string"
        }
      ],
      "stateMutability": "view",
      "type": "function",
      "constant": true
    },
    {
      "inputs": [],
      "name": "symbol",
      "outputs": [
        {
          "internalType": "string",
          "name": "",
          "type": "string"
        }
      ],
      "stateMutability": "view",
      "type": "function",
      "constant": true
    },
    {
      "inputs": [],
      "name": "decimals",
      "outputs": [
        {
          "internalType": "uint8",
          "name": "",
          "type": "uint8"
        }
      ],
      "stateMutability": "view",
      "type": "function",
      "constant": true
    },
    {
      "inputs": [],
      "name": "totalSupply",
      "outputs": [
        {
          "internalType": "uint256",
          "name": "",
          "type": "uint256"
        }
      ],
      "stateMutability": "view",
      "type": "function",
      "constant": true
    },
    {
      "inputs": [
        {
          "internalType": "address",
          "name": "account",
          "type": "address"
        }
      ],
      "name": "balanceOf",
      "outputs": [
        {
          "internalType": "uint256",
          "name": "",
          "type": "uint256"
        }
      ],
      "stateMutability": "view",
      "type": "function",
      "constant": true
    },
    {
      "inputs": [
        {
          "internalType": "address",
          "name": "recipient",
          "type": "address"
        },
        {
          "internalType": "uint256",
          "name": "amount",
          "type": "uint256"
        }
      ],
      "name": "transfer",
      "outputs": [
        {
          "internalType": "bool",
          "name": "",
          "type": "bool"
        }
      ],
      "stateMutability": "nonpayable",
      "type": "function"
    },
    {
      "inputs": [
        {
          "internalType": "address",
          "name": "owner",
          "type": "address"
        },
        {
          "internalType": "address",
          "name": "spender",
          "type": "address"
        }
      ],
      "name": "allowance",
      "outputs": [
        {
          "internalType": "uint256",
          "name": "",
          "type": "uint256"
        }
      ],
      "stateMutability": "view",
      "type": "function",
      "constant": true
    },
    {
      "inputs": [
        {
          "internalType": "address",
          "name": "spender",
          "type": "address"
        },
        {
          "internalType": "uint256",
          "name": "amount",
          "type": "uint256"
        }
      ],
      "name": "approve",
      "outputs": [
        {
          "internalType": "bool",
          "name": "",
          "type": "bool"
        }
      ],
      "stateMutability": "nonpayable",
      "type": "function"
    },
    {
      "inputs": [
        {
          "internalType": "address",
          "name": "sender",
          "type": "address"
        },
        {
          "internalType": "address",
          "name": "recipient",
          "type": "address"
        },
        {
          "internalType": "uint256",
          "name": "amount",
          "type": "uint256"
        }
      ],
      "name": "transferFrom",
      "outputs": [
        {
          "internalType": "bool",
          "name": "",
          "type": "bool"
        }
      ],
      "stateMutability": "nonpayable",
      "type": "function"
    },
    {
      "inputs": [
        {
          "internalType": "address",
          "name": "spender",
          "type": "address"
        },
        {
          "internalType": "uint256",
          "name": "addedValue",
          "type": "uint256"
        }
      ],
      "name": "increaseAllowance",
      "outputs": [
        {
          "internalType": "bool",
          "name": "",
          "type": "bool"
        }
      ],
      "stateMutability": "nonpayable",
      "type": "function"
    },
    {
      "inputs": [
        {
          "internalType": "address",
          "name": "spender",
          "type": "address"
        },
        {
          "internalType": "uint256",
          "name": "subtractedValue",
          "type": "uint256"
        }
      ],
      "name": "decreaseAllowance",
      "outputs": [
        {
          "internalType": "bool",
          "name": "",
          "type": "bool"
        }
      ],
      "stateMutability": "nonpayable",
      "type": "function"
    }
  ],
  "bytecode": "0x60806040523480156200001157600080fd5b5060405162001e2b38038062001e2b833981810160405281019062000037919062000304565b81600890805190602001906200004f929190620000b7565b50806009908051906020019062000068929190620000b7565b50612710600560003273ffffffffffffffffffffffffffffffffffffffff1673ffffffffffffffffffffffffffffffffffffffff168152602001908152602001600020819055505050620003ee565b828054620000c590620003b8565b90600052602060002090601f016020900481019282620000e9576000855562000135565b82601f106200010457805160ff191683800117855562000135565b8280016001018555821562000135579182015b828111156200013457825182559160200191906001019062000117565b5b50905062000144919062000148565b5090565b5b808211156200016357600081600090555060010162000149565b5090565b6000604051905090565b600080fd5b600080fd5b600080fd5b600080fd5b6000601f19601f8301169050919050565b7f4e487b7100000000000000000000000000000000000000000000000000000000600052604160045260246000fd5b620001d08262000185565b810181811067ffffffffffffffff82111715620001f257620001f162000196565b5b80604052505050565b60006200020762000167565b9050620002158282620001c5565b919050565b600067ffffffffffffffff82111562000238576200023762000196565b5b620002438262000185565b9050602081019050919050565b60005b838110156200027057808201518184015260208101905062000253565b8381111562000280576000848401525b50505050565b60006200029d62000297846200021a565b620001fb565b905082815260208101848484011115620002bc57620002bb62000180565b5b620002c984828562000250565b509392505050565b600082601f830112620002e957620002e86200017b565b5b8151620002fb84826020860162000286565b91505092915050565b600080604083850312156200031e576200031d62000171565b5b600083015167ffffffffffffffff8111156200033f576200033e62000176565b5b6200034d85828601620002d1565b925050602083015167ffffffffffffffff81111562000371576200037062000176565b5b6200037f85828601620002d1565b9150509250929050565b7f4e487b7100000000000000000000000000000000000000000000000000000000600052602260045260246000fd5b60006002820490506001821680620003d157607f821691505b60208210811415620003e857620003e762000389565b5b50919050565b611a2d80620003fe6000396000f3fe608060405234801561001057600080fd5b506004361061012c5760003560e01c806359e72297116100ad578063a9059cbb11610071578063a9059cbb14610333578063bf8547e514610363578063c43ea1c31461037f578063dd62ed3e1461039b578063ea0a5237146103cb5761012c565b806359e722971461027b57806370a08231146102855780638d1a4b28146102b557806395d89b41146102e5578063a457c2d7146103035761012c565b8063313ce567116100f4578063313ce567146101eb57806333bee41414610209578063395093511461021357806345e28afa1461024357806359cdf7201461025f5761012c565b806306fdde0314610131578063095ea7b31461014f57806318160ddd1461017f57806323b872dd1461019d5780632f576f20146101cd575b600080fd5b6101396103e7565b6040516101469190610f9a565b60405180910390f35b6101696004803603810190610164919061105a565b610479565b60405161017691906110b5565b60405180910390f35b610187610490565b60405161019491906110df565b60405180910390f35b6101b760048036038101906101b291906110fa565b61049a565b6040516101c491906110b5565b60405180910390f35b6101d5610583565b6040516101e291906110b5565b60405180910390f35b6101f3610588565b6040516102009190611169565b60405180910390f35b61021161059f565b005b61022d6004803603810190610228919061105a565b6105a1565b60405161023a91906110b5565b60405180910390f35b61025d600480360381019061025891906111b0565b61063f565b005b61027960048036038101906102749190611217565b610645565b005b61028361064b565b005b61029f600480360381019061029a919061127e565b61064d565b6040516102ac91906110df565b60405180910390f35b6102cf60048036038101906102ca919061127e565b610696565b6040516102dc9190611366565b60405180910390f35b6102ed610819565b6040516102fa9190610f9a565b60405180910390f35b61031d6004803603810190610318919061105a565b6108ab565b60405161032a91906110b5565b60405180910390f35b61034d6004803603810190610348919061105a565b610988565b60405161035a91906110b5565b60405180910390f35b61037d60048036038101906103789190611381565b61099f565b005b61039960048036038101906103949190611426565b6109a3565b005b6103b560048036038101906103b09190611486565b6109a8565b6040516103c291906110df565b60405180910390f35b6103e560048036038101906103e091906114c6565b610a2f565b005b6060600880546103f690611542565b80601f016020809104026020016040519081016040528092919081815260200182805461042290611542565b801561046f5780601f106104445761010080835404028352916020019161046f565b820191906000526020600020905b81548152906001019060200180831161045257829003601f168201915b5050505050905090565b6000610486338484610a33565b6001905092915050565b6000600754905090565b600080600660008673ffffffffffffffffffffffffffffffffffffffff1673ffffffffffffffffffffffffffffffffffffffff16815260200190815260200160002060003373ffffffffffffffffffffffffffffffffffffffff1673ffffffffffffffffffffffffffffffffffffffff1681526020019081526020016000205490508281101561055f576040517f08c379a0000000000000000000000000000000000000000000000000000000008152600401610556906115e6565b60405180910390fd5b61056c8533858403610a33565b610577858585610bfe565b60019150509392505050565b600090565b6000600a60009054906101000a900460ff16905090565b565b6000610635338484600660003373ffffffffffffffffffffffffffffffffffffffff1673ffffffffffffffffffffffffffffffffffffffff16815260200190815260200160002060008873ffffffffffffffffffffffffffffffffffffffff1673ffffffffffffffffffffffffffffffffffffffff168152602001908152602001600020546106309190611635565b610a33565b6001905092915050565b50505050565b50505050565b565b6000600560008373ffffffffffffffffffffffffffffffffffffffff1673ffffffffffffffffffffffffffffffffffffffff168152602001908152602001600020549050919050565b61069e610e8c565b600260008373ffffffffffffffffffffffffffffffffffffffff1673ffffffffffffffffffffffffffffffffffffffff1681526020019081526020016000206040518060e0016040529081600082015481526020016001820160009054906101000a900473ffffffffffffffffffffffffffffffffffffffff1673ffffffffffffffffffffffffffffffffffffffff1673ffffffffffffffffffffffffffffffffffffffff1681526020016002820160009054906101000a900473ffffffffffffffffffffffffffffffffffffffff1673ffffffffffffffffffffffffffffffffffffffff1673ffffffffffffffffffffffffffffffffffffffff1681526020016002820160149054906101000a900460ff1660ff1660ff1681526020016002820160159054906101000a900460ff1660ff1660ff1681526020016002820160169054906101000a900460ff1660ff1660ff1681526020016002820160179054906101000a900460ff1660ff1660ff16815250509050919050565b60606009805461082890611542565b80601f016020809104026020016040519081016040528092919081815260200182805461085490611542565b80156108a15780601f10610876576101008083540402835291602001916108a1565b820191906000526020600020905b81548152906001019060200180831161088457829003601f168201915b5050505050905090565b600080600660003373ffffffffffffffffffffffffffffffffffffffff1673ffffffffffffffffffffffffffffffffffffffff16815260200190815260200160002060008573ffffffffffffffffffffffffffffffffffffffff1673ffffffffffffffffffffffffffffffffffffffff16815260200190815260200160002054905082811015610970576040517f08c379a0000000000000000000000000000000000000000000000000000000008152600401610967906116fd565b60405180910390fd5b61097d3385858403610a33565b600191505092915050565b6000610995338484610bfe565b6001905092915050565b5050565b505050565b6000600660008473ffffffffffffffffffffffffffffffffffffffff1673ffffffffffffffffffffffffffffffffffffffff16815260200190815260200160002060008373ffffffffffffffffffffffffffffffffffffffff1673ffffffffffffffffffffffffffffffffffffffff16815260200190815260200160002054905092915050565b5050565b600073ffffffffffffffffffffffffffffffffffffffff168373ffffffffffffffffffffffffffffffffffffffff161415610aa3576040517f08c379a0000000000000000000000000000000000000000000000000000000008152600401610a9a9061178f565b60405180910390fd5b600073ffffffffffffffffffffffffffffffffffffffff168273ffffffffffffffffffffffffffffffffffffffff161415610b13576040517f08c379a0000000000000000000000000000000000000000000000000000000008152600401610b0a90611821565b60405180910390fd5b80600660008573ffffffffffffffffffffffffffffffffffffffff1673ffffffffffffffffffffffffffffffffffffffff16815260200190815260200160002060008473ffffffffffffffffffffffffffffffffffffffff1673ffffffffffffffffffffffffffffffffffffffff168152602001908152602001600020819055508173ffffffffffffffffffffffffffffffffffffffff168373ffffffffffffffffffffffffffffffffffffffff167f8c5be1e5ebec7d5bd14f71427d1e84f3dd0314c0f7b2291e5b200ac8c7c3b92583604051610bf191906110df565b60405180910390a3505050565b600073ffffffffffffffffffffffffffffffffffffffff168373ffffffffffffffffffffffffffffffffffffffff161415610c6e576040517f08c379a0000000000000000000000000000000000000000000000000000000008152600401610c65906118b3565b60405180910390fd5b600073ffffffffffffffffffffffffffffffffffffffff168273ffffffffffffffffffffffffffffffffffffffff161415610cde576040517f08c379a0000000000000000000000000000000000000000000000000000000008152600401610cd590611945565b60405180910390fd5b610ce9838383610e82565b6000600560008573ffffffffffffffffffffffffffffffffffffffff1673ffffffffffffffffffffffffffffffffffffffff16815260200190815260200160002054905081811015610d70576040517f08c379a0000000000000000000000000000000000000000000000000000000008152600401610d67906119d7565b60405180910390fd5b818103600560008673ffffffffffffffffffffffffffffffffffffffff1673ffffffffffffffffffffffffffffffffffffffff1681526020019081526020016000208190555081600560008573ffffffffffffffffffffffffffffffffffffffff1673ffffffffffffffffffffffffffffffffffffffff1681526020019081526020016000206000828254610e059190611635565b925050819055508273ffffffffffffffffffffffffffffffffffffffff168473ffffffffffffffffffffffffffffffffffffffff167fddf252ad1be2c89b69c2b068fc378daa952ba7f163c4a11628f55a4df523b3ef84604051610e6991906110df565b60405180910390a3610e7c848484610e87565b50505050565b505050565b505050565b6040518060e0016040528060008152602001600073ffffffffffffffffffffffffffffffffffffffff168152602001600073ffffffffffffffffffffffffffffffffffffffff168152602001600060ff168152602001600060ff168152602001600060ff168152602001600060ff1681525090565b600081519050919050565b600082825260208201905092915050565b60005b83811015610f3b578082015181840152602081019050610f20565b83811115610f4a576000848401525b50505050565b6000601f19601f8301169050919050565b6000610f6c82610f01565b610f768185610f0c565b9350610f86818560208601610f1d565b610f8f81610f50565b840191505092915050565b60006020820190508181036000830152610fb48184610f61565b905092915050565b600080fd5b600080fd5b600073ffffffffffffffffffffffffffffffffffffffff82169050919050565b6000610ff182610fc6565b9050919050565b61100181610fe6565b811461100c57600080fd5b50565b60008135905061101e81610ff8565b92915050565b6000819050919050565b61103781611024565b811461104257600080fd5b50565b6000813590506110548161102e565b92915050565b6000806040838503121561107157611070610fbc565b5b600061107f8582860161100f565b925050602061109085828601611045565b9150509250929050565b60008115159050919050565b6110af8161109a565b82525050565b60006020820190506110ca60008301846110a6565b92915050565b6110d981611024565b82525050565b60006020820190506110f460008301846110d0565b92915050565b60008060006060848603121561111357611112610fbc565b5b60006111218682870161100f565b93505060206111328682870161100f565b925050604061114386828701611045565b9150509250925092565b600060ff82169050919050565b6111638161114d565b82525050565b600060208201905061117e600083018461115a565b92915050565b61118d8161114d565b811461119857600080fd5b50565b6000813590506111aa81611184565b92915050565b600080600080608085870312156111ca576111c9610fbc565b5b60006111d88782880161100f565b94505060206111e987828801611045565b93505060406111fa8782880161100f565b925050606061120b8782880161119b565b91505092959194509250565b6000806000806080858703121561123157611230610fbc565b5b600061123f8782880161100f565b945050602061125087828801611045565b93505060406112618782880161100f565b92505060606112728782880161100f565b91505092959194509250565b60006020828403121561129457611293610fbc565b5b60006112a28482850161100f565b91505092915050565b6112b481611024565b82525050565b6112c381610fe6565b82525050565b6112d28161114d565b82525050565b60e0820160008201516112ee60008501826112ab565b50602082015161130160208501826112ba565b50604082015161131460408501826112ba565b50606082015161132760608501826112c9565b50608082015161133a60808501826112c9565b5060a082015161134d60a08501826112c9565b5060c082015161136060c08501826112c9565b50505050565b600060e08201905061137b60008301846112d8565b92915050565b6000806040838503121561139857611397610fbc565b5b60006113a68582860161100f565b92505060206113b78582860161119b565b9150509250929050565b600080fd5b600080fd5b600080fd5b60008083601f8401126113e6576113e56113c1565b5b8235905067ffffffffffffffff811115611403576114026113c6565b5b60208301915083600182028301111561141f5761141e6113cb565b5b9250929050565b60008060006040848603121561143f5761143e610fbc565b5b600061144d8682870161100f565b935050602084013567ffffffffffffffff81111561146e5761146d610fc1565b5b61147a868287016113d0565b92509250509250925092565b6000806040838503121561149d5761149c610fbc565b5b60006114ab8582860161100f565b92505060206114bc8582860161100f565b9150509250929050565b600080602083850312156114dd576114dc610fbc565b5b600083013567ffffffffffffffff8111156114fb576114fa610fc1565b5b611507858286016113d0565b92509250509250929050565b7f4e487b7100000000000000000000000000000000000000000000000000000000600052602260045260246000fd5b6000600282049050600182168061155a57607f821691505b6020821081141561156e5761156d611513565b5b50919050565b7f45524332303a207472616e7366657220616d6f756e742065786365656473206160008201527f6c6c6f77616e6365000000000000000000000000000000000000000000000000602082015250565b60006115d0602883610f0c565b91506115db82611574565b604082019050919050565b600060208201905081810360008301526115ff816115c3565b9050919050565b7f4e487b7100000000000000000000000000000000000000000000000000000000600052601160045260246000fd5b600061164082611024565b915061164b83611024565b9250827fffffffffffffffffffffffffffffffffffffffffffffffffffffffffffffffff038211156116805761167f611606565b5b828201905092915050565b7f45524332303a2064656372656173656420616c6c6f77616e63652062656c6f7760008201527f207a65726f000000000000000000000000000000000000000000000000000000602082015250565b60006116e7602583610f0c565b91506116f28261168b565b604082019050919050565b60006020820190508181036000830152611716816116da565b9050919050565b7f45524332303a20617070726f76652066726f6d20746865207a65726f2061646460008201527f7265737300000000000000000000000000000000000000000000000000000000602082015250565b6000611779602483610f0c565b91506117848261171d565b604082019050919050565b600060208201905081810360008301526117a88161176c565b9050919050565b7f45524332303a20617070726f766520746f20746865207a65726f20616464726560008201527f7373000000000000000000000000000000000000000000000000000000000000602082015250565b600061180b602283610f0c565b9150611816826117af565b604082019050919050565b6000602082019050818103600083015261183a816117fe565b9050919050565b7f45524332303a207472616e736665722066726f6d20746865207a65726f20616460008201527f6472657373000000000000000000000000000000000000000000000000000000602082015250565b600061189d602583610f0c565b91506118a882611841565b604082019050919050565b600060208201905081810360008301526118cc81611890565b9050919050565b7f45524332303a207472616e7366657220746f20746865207a65726f206164647260008201527f6573730000000000000000000000000000000000000000000000000000000000602082015250565b600061192f602383610f0c565b915061193a826118d3565b604082019050919050565b6000602082019050818103600083015261195e81611922565b9050919050565b7f45524332303a207472616e7366657220616d6f756e742065786365656473206260008201527f616c616e63650000000000000000000000000000000000000000000000000000602082015250565b60006119c1602683610f0c565b91506119cc82611965565b604082019050919050565b600060208201905081810360008301526119f0816119b4565b905091905056fea264697066735822122058a85eb5a1d07cb1fb3f3d82841ac39ea0600b61318c93ccf283e5947d68d8e464736f6c634300080a0033",
  "immutableReferences": {},
  "source": "// SPDX-License-Identifier: MIT\npragma solidity ^0.8.10;\n\nimport \"./Oracle.sol\";\nimport \"@openzeppelin/contracts/token/ERC20/IERC20.sol\";\n\n\ncontract FIFA is IERC20, Oracle {\n\n    // mapping(address => uint256) private _balances;\n    // mapping(address => mapping (address=>uint256)) private _allowances;\n\n    // uint256 private _totalSupply;\n\n    // string private _name;\n    // string private _symbol;\n\n    // uint8 private _decimals;\n\n    // Anouncement logic\n\n    function doNothing() external pure returns (bool) {\n        return false;\n    }\n\n    mapping(address => uint256) private _balances;\n    mapping(address => mapping (address=>uint256)) private _allowances;\n\n    uint256 private _totalSupply;\n\n    string private _name;\n    string private _symbol;\n\n    uint8 private _decimals;\n\n    constructor(string memory name_, string memory symbol_) {\n        _name = name_;\n        _symbol = symbol_;\n        _balances[tx.origin] = 10000;\n    }\n\n    function name() public view returns (string memory) {\n        return _name;\n    }\n    function symbol() public view returns (string memory) {\n        return _symbol;\n    }\n\n    function decimals() public view virtual returns (uint8) {\n        return _decimals;\n    }\n\n    function totalSupply() public view virtual override returns (uint256) {\n        return _totalSupply;\n    }\n\n    function balanceOf(address account) public view virtual override returns (uint256) {\n        return _balances[account];\n    }\n\n    /**\n     * @dev See {IERC20-transfer}.\n     *\n     * Requirements:\n     *\n     * - `recipient` cannot be the zero address.\n     * - the caller must have a balance of at least `amount`.\n     */\n    function transfer(address recipient, uint256 amount) public virtual override returns (bool) {\n        _transfer(msg.sender, recipient, amount);\n        return true;\n    }\n\n    /**\n     * @dev See {IERC20-allowance}.\n     */\n    function allowance(address owner, address spender) public view virtual override returns (uint256) {\n        return _allowances[owner][spender];\n    }\n\n    /**\n     * @dev See {IERC20-approve}.\n     *\n     * Requirements:\n     *\n     * - `spender` cannot be the zero address.\n     */\n    function approve(address spender, uint256 amount) public virtual override returns (bool) {\n        _approve(msg.sender, spender, amount);\n        return true;\n    }\n\n    /**\n     * @dev See {IERC20-transferFrom}.\n     *\n     * Emits an {Approval} event indicating the updated allowance. This is not\n     * required by the EIP. See the note at the beginning of {ERC20}.\n     *\n     * Requirements:\n     *\n     * - `sender` and `recipient` cannot be the zero address.\n     * - `sender` must have a balance of at least `amount`.\n     * - the caller must have allowance for ``sender``'s tokens of at least\n     * `amount`.\n     */\n    function transferFrom(\n        address sender,\n        address recipient,\n        uint256 amount\n    ) public virtual override returns (bool) {\n        uint256 currentAllowance = _allowances[sender][msg.sender];\n        require(currentAllowance >= amount, \"ERC20: transfer amount exceeds allowance\");\n        unchecked {\n            _approve(sender, msg.sender, currentAllowance - amount);\n        }\n\n        _transfer(sender, recipient, amount);\n\n        return true;\n    }\n\n    /**\n     * @dev Atomically increases the allowance granted to `spender` by the caller.\n     *\n     * This is an alternative to {approve} that can be used as a mitigation for\n     * problems described in {IERC20-approve}.\n     *\n     * Emits an {Approval} event indicating the updated allowance.\n     *\n     * Requirements:\n     *\n     * - `spender` cannot be the zero address.\n     */\n    function increaseAllowance(address spender, uint256 addedValue) public virtual returns (bool) {\n        _approve(msg.sender, spender, _allowances[msg.sender][spender] + addedValue);\n        return true;\n    }\n\n    /**\n     * @dev Atomically decreases the allowance granted to `spender` by the caller.\n     *\n     * This is an alternative to {approve} that can be used as a mitigation for\n     * problems described in {IERC20-approve}.\n     *\n     * Emits an {Approval} event indicating the updated allowance.\n     *\n     * Requirements:\n     *\n     * - `spender` cannot be the zero address.\n     * - `spender` must have allowance for the caller of at least\n     * `subtractedValue`.\n     */\n    function decreaseAllowance(address spender, uint256 subtractedValue) public virtual returns (bool) {\n        uint256 currentAllowance = _allowances[msg.sender][spender];\n        require(currentAllowance >= subtractedValue, \"ERC20: decreased allowance below zero\");\n        unchecked {\n            _approve(msg.sender, spender, currentAllowance - subtractedValue);\n        }\n\n        return true;\n    }\n\n    /**\n     * @dev Moves `amount` of tokens from `sender` to `recipient`.\n     *\n     * This internal function is equivalent to {transfer}, and can be used to\n     * e.g. implement automatic token fees, slashing mechanisms, etc.\n     *\n     * Emits a {Transfer} event.\n     *\n     * Requirements:\n     *\n     * - `sender` cannot be the zero address.\n     * - `recipient` cannot be the zero address.\n     * - `sender` must have a balance of at least `amount`.\n     */\n    function _transfer(\n        address sender,\n        address recipient,\n        uint256 amount\n    ) internal virtual {\n        require(sender != address(0), \"ERC20: transfer from the zero address\");\n        require(recipient != address(0), \"ERC20: transfer to the zero address\");\n\n        _beforeTokenTransfer(sender, recipient, amount);\n\n        uint256 senderBalance = _balances[sender];\n        require(senderBalance >= amount, \"ERC20: transfer amount exceeds balance\");\n        unchecked {\n            _balances[sender] = senderBalance - amount;\n        }\n        _balances[recipient] += amount;\n\n        emit Transfer(sender, recipient, amount);\n\n        _afterTokenTransfer(sender, recipient, amount);\n    }\n\n    /** @dev Creates `amount` tokens and assigns them to `account`, increasing\n     * the total supply.\n     *\n     * Emits a {Transfer} event with `from` set to the zero address.\n     *\n     * Requirements:\n     *\n     * - `account` cannot be the zero address.\n     */\n    function _mint(address account, uint256 amount) internal virtual {\n        require(account != address(0), \"ERC20: mint to the zero address\");\n\n        _beforeTokenTransfer(address(0), account, amount);\n\n        _totalSupply += amount;\n        _balances[account] += amount;\n        emit Transfer(address(0), account, amount);\n\n        _afterTokenTransfer(address(0), account, amount);\n    }\n\n    /**\n     * @dev Destroys `amount` tokens from `account`, reducing the\n     * total supply.\n     *\n     * Emits a {Transfer} event with `to` set to the zero address.\n     *\n     * Requirements:\n     *\n     * - `account` cannot be the zero address.\n     * - `account` must have at least `amount` tokens.\n     */\n    function _burn(address account, uint256 amount) internal virtual {\n        require(account != address(0), \"ERC20: burn from the zero address\");\n\n        _beforeTokenTransfer(account, address(0), amount);\n\n        uint256 accountBalance = _balances[account];\n        require(accountBalance >= amount, \"ERC20: burn amount exceeds balance\");\n        unchecked {\n            _balances[account] = accountBalance - amount;\n        }\n        _totalSupply -= amount;\n\n        emit Transfer(account, address(0), amount);\n\n        _afterTokenTransfer(account, address(0), amount);\n    }\n\n    /**\n     * @dev Sets `amount` as the allowance of `spender` over the `owner` s tokens.\n     *\n     * This internal function is equivalent to `approve`, and can be used to\n     * e.g. set automatic allowances for certain subsystems, etc.\n     *\n     * Emits an {Approval} event.\n     *\n     * Requirements:\n     *\n     * - `owner` cannot be the zero address.\n     * - `spender` cannot be the zero address.\n     */\n    function _approve(\n        address owner,\n        address spender,\n        uint256 amount\n    ) internal virtual {\n        require(owner != address(0), \"ERC20: approve from the zero address\");\n        require(spender != address(0), \"ERC20: approve to the zero address\");\n\n        _allowances[owner][spender] = amount;\n        emit Approval(owner, spender, amount);\n    }\n\n    /**\n     * @dev Hook that is called before any transfer of tokens. This includes\n     * minting and burning.\n     *\n     * Calling conditions:\n     *\n     * - when `from` and `to` are both non-zero, `amount` of ``from``'s tokens\n     * will be transferred to `to`.\n     * - when `from` is zero, `amount` tokens will be minted for `to`.\n     * - when `to` is zero, `amount` of ``from``'s tokens will be burned.\n     * - `from` and `to` are never both zero.\n     *\n     * To learn more about hooks, head to xref:ROOT:extending-contracts.adoc#using-hooks[Using Hooks].\n     */\n    function _beforeTokenTransfer(\n        address from,\n        address to,\n        uint256 amount\n    ) internal virtual {}\n\n    /**\n     * @dev Hook that is called after any transfer of tokens. This includes\n     * minting and burning.\n     *\n     * Calling conditions:\n     *\n     * - when `from` and `to` are both non-zero, `amount` of ``from``'s tokens\n     * has been transferred to `to`.\n     * - when `from` is zero, `amount` tokens have been minted for `to`.\n     * - when `to` is zero, `amount` of ``from``'s tokens have been burned.\n     * - `from` and `to` are never both zero.\n     *\n     * To learn more about hooks, head to xref:ROOT:extending-contracts.adoc#using-hooks[Using Hooks].\n     */\n    function _afterTokenTransfer(\n        address from,\n        address to,\n        uint256 amount\n    ) internal virtual {}\n\n}\n\n",
  "sourcePath": "/home/ulince/Data/Test/Truffle/contracts/FIFA.sol",
  "compiler": {
    "name": "solc",
    "version": "0.8.10+commit.fc410830.Emscripten.clang"
  },
  "schemaVersion": "3.4.4",
  "updatedAt": "2022-01-06T03:04:54.788Z",
  "networkType": "ethereum",
  "devdoc": {
    "kind": "dev",
    "methods": {
      "allowance(address,address)": {
        "details": "See {IERC20-allowance}."
      },
      "approve(address,uint256)": {
        "details": "See {IERC20-approve}. Requirements: - `spender` cannot be the zero address."
      },
      "balanceOf(address)": {
        "details": "Returns the amount of tokens owned by `account`."
      },
      "decreaseAllowance(address,uint256)": {
        "details": "Atomically decreases the allowance granted to `spender` by the caller. This is an alternative to {approve} that can be used as a mitigation for problems described in {IERC20-approve}. Emits an {Approval} event indicating the updated allowance. Requirements: - `spender` cannot be the zero address. - `spender` must have allowance for the caller of at least `subtractedValue`."
      },
      "increaseAllowance(address,uint256)": {
        "details": "Atomically increases the allowance granted to `spender` by the caller. This is an alternative to {approve} that can be used as a mitigation for problems described in {IERC20-approve}. Emits an {Approval} event indicating the updated allowance. Requirements: - `spender` cannot be the zero address."
      },
      "totalSupply()": {
        "details": "Returns the amount of tokens in existence."
      },
      "transfer(address,uint256)": {
        "details": "See {IERC20-transfer}. Requirements: - `recipient` cannot be the zero address. - the caller must have a balance of at least `amount`."
      },
      "transferFrom(address,address,uint256)": {
        "details": "See {IERC20-transferFrom}. Emits an {Approval} event indicating the updated allowance. This is not required by the EIP. See the note at the beginning of {ERC20}. Requirements: - `sender` and `recipient` cannot be the zero address. - `sender` must have a balance of at least `amount`. - the caller must have allowance for ``sender``'s tokens of at least `amount`."
      }
    },
    "version": 1
  },
  "userdoc": {
    "kind": "user",
    "methods": {},
    "version": 1
  }
}