{
  "contractName": "Stake",
  "abi": [
    {
      "inputs": [],
      "stateMutability": "nonpayable",
      "type": "constructor"
    },
    {
      "anonymous": false,
      "inputs": [
        {
          "indexed": true,
          "internalType": "address",
          "name": "staker",
          "type": "address"
        }
      ],
      "name": "Staking",
      "type": "event"
    },
    {
      "inputs": [],
      "name": "stake",
      "outputs": [
        {
          "internalType": "bool",
          "name": "",
          "type": "bool"
        }
      ],
      "stateMutability": "payable",
      "type": "function",
      "payable": true
    },
    {
      "inputs": [
        {
          "internalType": "address",
          "name": "addr",
          "type": "address"
        }
      ],
      "name": "isStaking",
      "outputs": [
        {
          "internalType": "bool",
          "name": "",
          "type": "bool"
        }
      ],
      "stateMutability": "view",
      "type": "function",
      "constant": true
    }
  ],
  "bytecode": "0x608060405234801561001057600080fd5b5060016000803273ffffffffffffffffffffffffffffffffffffffff1673ffffffffffffffffffffffffffffffffffffffff1681526020019081526020016000208190555032600160006101000a81548173ffffffffffffffffffffffffffffffffffffffff021916908373ffffffffffffffffffffffffffffffffffffffff160217905550610444806100a56000396000f3fe6080604052600436106100295760003560e01c80633a4b66f11461002e5780636f49712b1461004c575b600080fd5b610036610089565b6040516100439190610254565b60405180910390f35b34801561005857600080fd5b50610073600480360381019061006e91906102d2565b6101ef565b6040516100809190610254565b60405180910390f35b600080600160009054906101000a900473ffffffffffffffffffffffffffffffffffffffff1673ffffffffffffffffffffffffffffffffffffffff16670de0b6b3a76400006040516100da90610356565b60006040518083038185875af1925050503d8060008114610117576040519150601f19603f3d011682016040523d82523d6000602084013e61011c565b606091505b5050905080610160576040517f08c379a0000000000000000000000000000000000000000000000000000000008152600401610157906103ee565b60405180910390fd5b60016000803373ffffffffffffffffffffffffffffffffffffffff1673ffffffffffffffffffffffffffffffffffffffff168152602001908152602001600020819055503373ffffffffffffffffffffffffffffffffffffffff167fdb9b42f537e149b1982e6ea42849a17a9f65e5fb6c3629d6874bd3737f45732d60405160405180910390a2600191505090565b6000806000808473ffffffffffffffffffffffffffffffffffffffff1673ffffffffffffffffffffffffffffffffffffffff16815260200190815260200160002054119050919050565b60008115159050919050565b61024e81610239565b82525050565b60006020820190506102696000830184610245565b92915050565b600080fd5b600073ffffffffffffffffffffffffffffffffffffffff82169050919050565b600061029f82610274565b9050919050565b6102af81610294565b81146102ba57600080fd5b50565b6000813590506102cc816102a6565b92915050565b6000602082840312156102e8576102e761026f565b5b60006102f6848285016102bd565b91505092915050565b600081905092915050565b7f49276d207374616b696e6720746f2062652061207265706f7274657200000000600082015250565b6000610340601c836102ff565b915061034b8261030a565b601c82019050919050565b600061036182610333565b9150819050919050565b600082825260208201905092915050565b7f4661696c656420746f2073656e64206d6f6e65792c20636865636b20796f757260008201527f2066756e64730000000000000000000000000000000000000000000000000000602082015250565b60006103d860268361036b565b91506103e38261037c565b604082019050919050565b60006020820190508181036000830152610407816103cb565b905091905056fea2646970667358221220ba9cc80d1371a25e2b6bee3efc0ac7618d2ae0923c6018dd74a7909824318bcf64736f6c634300080a0033",
  "immutableReferences": {},
  "source": "// SPDX-License-Identifier: MIT\npragma solidity >=0.4.25 <0.8.12;\n\ncontract Stake {\n\tmapping (address => uint) stakers;\n\n  address payable hodler;\n\n\tevent Staking(address indexed staker);\n\n\tconstructor() public {\n\t\tstakers[tx.origin] = 1;\n    hodler = payable(tx.origin);\n\t}\n\n  function stake() external payable returns(bool){\n    (bool success,) = hodler.call{value: 1 ether}(\"I'm staking to be a reporter\"); // cost to enter is 1 MATIC\n    require(success, \"Failed to send money, check your funds\");\n    stakers[msg.sender] = 1;\n    emit Staking(msg.sender);\n    return true;\n  }\n\n\tfunction isStaking(address addr) external view returns(bool){\n\t\treturn stakers[addr] > 0;\n\t}\n}\n",
  "sourcePath": "/home/ulince/Data/Test/Truffle/contracts/Stake.sol",
  "compiler": {
    "name": "solc",
    "version": "0.8.10+commit.fc410830.Emscripten.clang"
  },
  "schemaVersion": "3.4.4",
  "updatedAt": "2022-01-06T03:04:54.771Z",
  "networkType": "ethereum",
  "devdoc": {
    "kind": "dev",
    "methods": {},
    "version": 1
  },
  "userdoc": {
    "kind": "user",
    "methods": {},
    "version": 1
  }
}